{"abi":[{"type":"constructor","inputs":[{"name":"_treasury","type":"address","internalType":"address"}],"stateMutability":"nonpayable"},{"type":"function","name":"TOTAL_PLOTS","inputs":[],"outputs":[{"name":"","type":"uint256","internalType":"uint256"}],"stateMutability":"view"},{"type":"function","name":"balanceOf","inputs":[{"name":"account","type":"address","internalType":"address"},{"name":"id","type":"uint256","internalType":"uint256"}],"outputs":[{"name":"","type":"uint256","internalType":"uint256"}],"stateMutability":"view"},{"type":"function","name":"balanceOfBatch","inputs":[{"name":"accounts","type":"address[]","internalType":"address[]"},{"name":"ids","type":"uint256[]","internalType":"uint256[]"}],"outputs":[{"name":"","type":"uint256[]","internalType":"uint256[]"}],"stateMutability":"view"},{"type":"function","name":"buyPlot","inputs":[{"name":"plotId","type":"uint256","internalType":"uint256"}],"outputs":[],"stateMutability":"payable"},{"type":"function","name":"buyPlotForCold","inputs":[{"name":"plotId","type":"uint256","internalType":"uint256"},{"name":"coldWallet","type":"address","internalType":"address"}],"outputs":[],"stateMutability":"payable"},{"type":"function","name":"isApprovedForAll","inputs":[{"name":"account","type":"address","internalType":"address"},{"name":"operator","type":"address","internalType":"address"}],"outputs":[{"name":"","type":"bool","internalType":"bool"}],"stateMutability":"view"},{"type":"function","name":"owner","inputs":[],"outputs":[{"name":"","type":"address","internalType":"address"}],"stateMutability":"view"},{"type":"function","name":"plotMinted","inputs":[{"name":"","type":"uint256","internalType":"uint256"}],"outputs":[{"name":"","type":"bool","internalType":"bool"}],"stateMutability":"view"},{"type":"function","name":"plotsRemaining","inputs":[],"outputs":[{"name":"","type":"uint256","internalType":"uint256"}],"stateMutability":"view"},{"type":"function","name":"plotsSold","inputs":[],"outputs":[{"name":"","type":"uint256","internalType":"uint256"}],"stateMutability":"view"},{"type":"function","name":"priceInAVAX","inputs":[],"outputs":[{"name":"","type":"uint256","internalType":"uint256"}],"stateMutability":"view"},{"type":"function","name":"renounceOwnership","inputs":[],"outputs":[],"stateMutability":"nonpayable"},{"type":"function","name":"safeBatchTransferFrom","inputs":[{"name":"from","type":"address","internalType":"address"},{"name":"to","type":"address","internalType":"address"},{"name":"ids","type":"uint256[]","internalType":"uint256[]"},{"name":"values","type":"uint256[]","internalType":"uint256[]"},{"name":"data","type":"bytes","internalType":"bytes"}],"outputs":[],"stateMutability":"nonpayable"},{"type":"function","name":"safeTransferFrom","inputs":[{"name":"from","type":"address","internalType":"address"},{"name":"to","type":"address","internalType":"address"},{"name":"id","type":"uint256","internalType":"uint256"},{"name":"value","type":"uint256","internalType":"uint256"},{"name":"data","type":"bytes","internalType":"bytes"}],"outputs":[],"stateMutability":"nonpayable"},{"type":"function","name":"salesActive","inputs":[],"outputs":[{"name":"","type":"bool","internalType":"bool"}],"stateMutability":"view"},{"type":"function","name":"setApprovalForAll","inputs":[{"name":"operator","type":"address","internalType":"address"},{"name":"approved","type":"bool","internalType":"bool"}],"outputs":[],"stateMutability":"nonpayable"},{"type":"function","name":"setPrice","inputs":[{"name":"newPrice","type":"uint256","internalType":"uint256"}],"outputs":[],"stateMutability":"nonpayable"},{"type":"function","name":"setTreasury","inputs":[{"name":"newTreasury","type":"address","internalType":"address"}],"outputs":[],"stateMutability":"nonpayable"},{"type":"function","name":"supportsInterface","inputs":[{"name":"interfaceId","type":"bytes4","internalType":"bytes4"}],"outputs":[{"name":"","type":"bool","internalType":"bool"}],"stateMutability":"view"},{"type":"function","name":"toggleSales","inputs":[{"name":"active","type":"bool","internalType":"bool"}],"outputs":[],"stateMutability":"nonpayable"},{"type":"function","name":"transferOwnership","inputs":[{"name":"newOwner","type":"address","internalType":"address"}],"outputs":[],"stateMutability":"nonpayable"},{"type":"function","name":"treasury","inputs":[],"outputs":[{"name":"","type":"address","internalType":"address"}],"stateMutability":"view"},{"type":"function","name":"uri","inputs":[{"name":"","type":"uint256","internalType":"uint256"}],"outputs":[{"name":"","type":"string","internalType":"string"}],"stateMutability":"view"},{"type":"event","name":"ApprovalForAll","inputs":[{"name":"account","type":"address","indexed":true,"internalType":"address"},{"name":"operator","type":"address","indexed":true,"internalType":"address"},{"name":"approved","type":"bool","indexed":false,"internalType":"bool"}],"anonymous":false},{"type":"event","name":"LandMinted","inputs":[{"name":"plotId","type":"uint256","indexed":true,"internalType":"uint256"},{"name":"owner","type":"address","indexed":true,"internalType":"address"},{"name":"tokenId","type":"uint256","indexed":false,"internalType":"uint256"},{"name":"pricePaid","type":"uint256","indexed":false,"internalType":"uint256"},{"name":"coldWallet","type":"bool","indexed":false,"internalType":"bool"}],"anonymous":false},{"type":"event","name":"OwnershipTransferred","inputs":[{"name":"previousOwner","type":"address","indexed":true,"internalType":"address"},{"name":"newOwner","type":"address","indexed":true,"internalType":"address"}],"anonymous":false},{"type":"event","name":"TransferBatch","inputs":[{"name":"operator","type":"address","indexed":true,"internalType":"address"},{"name":"from","type":"address","indexed":true,"internalType":"address"},{"name":"to","type":"address","indexed":true,"internalType":"address"},{"name":"ids","type":"uint256[]","indexed":false,"internalType":"uint256[]"},{"name":"values","type":"uint256[]","indexed":false,"internalType":"uint256[]"}],"anonymous":false},{"type":"event","name":"TransferSingle","inputs":[{"name":"operator","type":"address","indexed":true,"internalType":"address"},{"name":"from","type":"address","indexed":true,"internalType":"address"},{"name":"to","type":"address","indexed":true,"internalType":"address"},{"name":"id","type":"uint256","indexed":false,"internalType":"uint256"},{"name":"value","type":"uint256","indexed":false,"internalType":"uint256"}],"anonymous":false},{"type":"event","name":"URI","inputs":[{"name":"value","type":"string","indexed":false,"internalType":"string"},{"name":"id","type":"uint256","indexed":true,"internalType":"uint256"}],"anonymous":false},{"type":"error","name":"ERC1155InsufficientBalance","inputs":[{"name":"sender","type":"address","internalType":"address"},{"name":"balance","type":"uint256","internalType":"uint256"},{"name":"needed","type":"uint256","internalType":"uint256"},{"name":"tokenId","type":"uint256","internalType":"uint256"}]},{"type":"error","name":"ERC1155InvalidApprover","inputs":[{"name":"approver","type":"address","internalType":"address"}]},{"type":"error","name":"ERC1155InvalidArrayLength","inputs":[{"name":"idsLength","type":"uint256","internalType":"uint256"},{"name":"valuesLength","type":"uint256","internalType":"uint256"}]},{"type":"error","name":"ERC1155InvalidOperator","inputs":[{"name":"operator","type":"address","internalType":"address"}]},{"type":"error","name":"ERC1155InvalidReceiver","inputs":[{"name":"receiver","type":"address","internalType":"address"}]},{"type":"error","name":"ERC1155InvalidSender","inputs":[{"name":"sender","type":"address","internalType":"address"}]},{"type":"error","name":"ERC1155MissingApprovalForAll","inputs":[{"name":"operator","type":"address","internalType":"address"},{"name":"owner","type":"address","internalType":"address"}]},{"type":"error","name":"OwnableInvalidOwner","inputs":[{"name":"owner","type":"address","internalType":"address"}]},{"type":"error","name":"OwnableUnauthorizedAccount","inputs":[{"name":"account","type":"address","internalType":"address"}]}],"bytecode":{"object":"0x60806040525f6004556706f05b59d3b200006005555f600660146101000a81548160ff0219169083151502179055503480156200003a575f80fd5b506040516200375438038062003754833981810160405281019062000060919062000323565b336040518060400160405280601081526020017f697066733a2f2f516d536172616b742f00000000000000000000000000000000815250620000a881620001e660201b60201c565b505f73ffffffffffffffffffffffffffffffffffffffff168173ffffffffffffffffffffffffffffffffffffffff16036200011c575f6040517f1e4fbdf700000000000000000000000000000000000000000000000000000000815260040162000113919062000364565b60405180910390fd5b6200012d81620001fb60201b60201c565b505f73ffffffffffffffffffffffffffffffffffffffff168173ffffffffffffffffffffffffffffffffffffffff16036200019f576040517f08c379a00000000000000000000000000000000000000000000000000000000081526004016200019690620003dd565b60405180910390fd5b8060065f6101000a81548173ffffffffffffffffffffffffffffffffffffffff021916908373ffffffffffffffffffffffffffffffffffffffff1602179055505062000745565b8060029081620001f7919062000661565b5050565b5f60035f9054906101000a900473ffffffffffffffffffffffffffffffffffffffff1690508160035f6101000a81548173ffffffffffffffffffffffffffffffffffffffff021916908373ffffffffffffffffffffffffffffffffffffffff1602179055508173ffffffffffffffffffffffffffffffffffffffff168173ffffffffffffffffffffffffffffffffffffffff167f8be0079c531659141344cd1fd0a4f28419497f9722a3daafe3b4186f6b6457e060405160405180910390a35050565b5f80fd5b5f73ffffffffffffffffffffffffffffffffffffffff82169050919050565b5f620002ed82620002c2565b9050919050565b620002ff81620002e1565b81146200030a575f80fd5b50565b5f815190506200031d81620002f4565b92915050565b5f602082840312156200033b576200033a620002be565b5b5f6200034a848285016200030d565b91505092915050565b6200035e81620002e1565b82525050565b5f602082019050620003795f83018462000353565b92915050565b5f82825260208201905092915050565b7f496e76616c6964207472656173757279000000000000000000000000000000005f82015250565b5f620003c56010836200037f565b9150620003d2826200038f565b602082019050919050565b5f6020820190508181035f830152620003f681620003b7565b9050919050565b5f81519050919050565b7f4e487b71000000000000000000000000000000000000000000000000000000005f52604160045260245ffd5b7f4e487b71000000000000000000000000000000000000000000000000000000005f52602260045260245ffd5b5f60028204905060018216806200047957607f821691505b6020821081036200048f576200048e62000434565b5b50919050565b5f819050815f5260205f209050919050565b5f6020601f8301049050919050565b5f82821b905092915050565b5f60088302620004f37fffffffffffffffffffffffffffffffffffffffffffffffffffffffffffffffff82620004b6565b620004ff8683620004b6565b95508019841693508086168417925050509392505050565b5f819050919050565b5f819050919050565b5f62000549620005436200053d8462000517565b62000520565b62000517565b9050919050565b5f819050919050565b620005648362000529565b6200057c620005738262000550565b848454620004c2565b825550505050565b5f90565b6200059262000584565b6200059f81848462000559565b505050565b5b81811015620005c657620005ba5f8262000588565b600181019050620005a5565b5050565b601f8211156200061557620005df8162000495565b620005ea84620004a7565b81016020851015620005fa578190505b620006126200060985620004a7565b830182620005a4565b50505b505050565b5f82821c905092915050565b5f620006375f19846008026200061a565b1980831691505092915050565b5f62000651838362000626565b9150826002028217905092915050565b6200066c82620003fd565b67ffffffffffffffff81111562000688576200068762000407565b5b62000694825462000461565b620006a1828285620005ca565b5f60209050601f831160018114620006d7575f8415620006c2578287015190505b620006ce858262000644565b8655506200073d565b601f198416620006e78662000495565b5f5b828110156200071057848901518255600182019150602085019450602081019050620006e9565b868310156200073057848901516200072c601f89168262000626565b8355505b6001600288020188555050505b505050505050565b61300180620007535f395ff3fe60806040526004361061013e575f3560e01c8063715018a6116100b5578063acad42231161006e578063acad42231461042a578063e985e9c514610466578063f0f44260146104a2578063f242432a146104ca578063f2fde38b146104f2578063f782c0f81461051a5761013e565b8063715018a6146103545780637a85a11a1461036a5780637b1949d2146103945780638da5cb5b146103b057806391b7f5ed146103da578063a22cb465146104025761013e565b80632eb2c2d6116101075780632eb2c2d6146102485780634a6bfa2d146102705780634e1273f41461029a57806361d027b3146102d657806365ffc20514610300578063696adcd61461032a5761013e565b8062fdd58e1461014257806301ffc9a71461017e5780630a73f8e0146101ba5780630e89341c146101e257806317464dc31461021e575b5f80fd5b34801561014d575f80fd5b5061016860048036038101906101639190612059565b610536565b60405161017591906120a6565b60405180910390f35b348015610189575f80fd5b506101a4600480360381019061019f9190612114565b61058b565b6040516101b19190612159565b60405180910390f35b3480156101c5575f80fd5b506101e060048036038101906101db919061219c565b61066c565b005b3480156101ed575f80fd5b50610208600480360381019061020391906121c7565b610691565b604051610215919061227c565b60405180910390f35b348015610229575f80fd5b50610232610723565b60405161023f91906120a6565b60405180910390f35b348015610253575f80fd5b5061026e6004803603810190610269919061248c565b610739565b005b34801561027b575f80fd5b506102846107e0565b6040516102919190612159565b60405180910390f35b3480156102a5575f80fd5b506102c060048036038101906102bb9190612617565b6107f3565b6040516102cd9190612744565b60405180910390f35b3480156102e1575f80fd5b506102ea610900565b6040516102f79190612773565b60405180910390f35b34801561030b575f80fd5b50610314610925565b60405161032191906120a6565b60405180910390f35b348015610335575f80fd5b5061033e61092b565b60405161034b91906120a6565b60405180910390f35b34801561035f575f80fd5b50610368610931565b005b348015610375575f80fd5b5061037e610944565b60405161038b91906120a6565b60405180910390f35b6103ae60048036038101906103a991906121c7565b61094a565b005b3480156103bb575f80fd5b506103c4610c07565b6040516103d19190612773565b60405180910390f35b3480156103e5575f80fd5b5061040060048036038101906103fb91906121c7565b610c2f565b005b34801561040d575f80fd5b506104286004803603810190610423919061278c565b610c41565b005b348015610435575f80fd5b50610450600480360381019061044b91906121c7565b610c57565b60405161045d9190612159565b60405180910390f35b348015610471575f80fd5b5061048c600480360381019061048791906127ca565b610c74565b6040516104999190612159565b60405180910390f35b3480156104ad575f80fd5b506104c860048036038101906104c39190612808565b610d02565b005b3480156104d5575f80fd5b506104f060048036038101906104eb9190612833565b610dbb565b005b3480156104fd575f80fd5b5061051860048036038101906105139190612808565b610e62565b005b610534600480360381019061052f91906128c6565b610ee6565b005b5f805f8381526020019081526020015f205f8473ffffffffffffffffffffffffffffffffffffffff1673ffffffffffffffffffffffffffffffffffffffff1681526020019081526020015f2054905092915050565b5f7fd9b67a26000000000000000000000000000000000000000000000000000000007bffffffffffffffffffffffffffffffffffffffffffffffffffffffff1916827bffffffffffffffffffffffffffffffffffffffffffffffffffffffff1916148061065557507f0e89341c000000000000000000000000000000000000000000000000000000007bffffffffffffffffffffffffffffffffffffffffffffffffffffffff1916827bffffffffffffffffffffffffffffffffffffffffffffffffffffffff1916145b80610665575061066482611213565b5b9050919050565b61067461127c565b80600660146101000a81548160ff02191690831515021790555050565b6060600280546106a090612931565b80601f01602080910402602001604051908101604052809291908181526020018280546106cc90612931565b80156107175780601f106106ee57610100808354040283529160200191610717565b820191905f5260205f20905b8154815290600101906020018083116106fa57829003601f168201915b50505050509050919050565b5f600454612710610734919061298e565b905090565b5f610742611303565b90508073ffffffffffffffffffffffffffffffffffffffff168673ffffffffffffffffffffffffffffffffffffffff161415801561078757506107858682610c74565b155b156107cb5780866040517fe237d9220000000000000000000000000000000000000000000000000000000081526004016107c29291906129c1565b60405180910390fd5b6107d8868686868661130a565b505050505050565b600660149054906101000a900460ff1681565b6060815183511461083f57815183516040517f5b0599910000000000000000000000000000000000000000000000000000000081526004016108369291906129e8565b60405180910390fd5b5f835167ffffffffffffffff81111561085b5761085a6122a0565b5b6040519080825280602002602001820160405280156108895781602001602082028036833780820191505090505b5090505f5b84518110156108f5576108c56108ad82876113fe90919063ffffffff16565b6108c0838761141190919063ffffffff16565b610536565b8282815181106108d8576108d7612a0f565b5b602002602001018181525050806108ee90612a3c565b905061088e565b508091505092915050565b60065f9054906101000a900473ffffffffffffffffffffffffffffffffffffffff1681565b60045481565b61271081565b61093961127c565b6109425f611424565b565b60055481565b600660149054906101000a900460ff16610999576040517f08c379a000000000000000000000000000000000000000000000000000000000815260040161099090612acd565b60405180910390fd5b5f811180156109aa57506127108111155b6109e9576040517f08c379a00000000000000000000000000000000000000000000000000000000081526004016109e090612b35565b60405180910390fd5b60075f8281526020019081526020015f205f9054906101000a900460ff1615610a47576040517f08c379a0000000000000000000000000000000000000000000000000000000008152600401610a3e90612b9d565b60405180910390fd5b600554341015610a8c576040517f08c379a0000000000000000000000000000000000000000000000000000000008152600401610a8390612c05565b60405180910390fd5b600160075f8381526020019081526020015f205f6101000a81548160ff02191690831515021790555060045f815480929190610ac790612a3c565b9190505550610ae73382600160405180602001604052805f8152506114e7565b5f60065f9054906101000a900473ffffffffffffffffffffffffffffffffffffffff1673ffffffffffffffffffffffffffffffffffffffff1634604051610b2d90612c50565b5f6040518083038185875af1925050503d805f8114610b67576040519150601f19603f3d011682016040523d82523d5f602084013e610b6c565b606091505b5050905080610bb0576040517f08c379a0000000000000000000000000000000000000000000000000000000008152600401610ba790612cae565b60405180910390fd5b3373ffffffffffffffffffffffffffffffffffffffff16827fee695f2628e605cc152e49423ce3d61f2373c7b07702f32e8088fec6b8610a5984345f604051610bfb93929190612ccc565b60405180910390a35050565b5f60035f9054906101000a900473ffffffffffffffffffffffffffffffffffffffff16905090565b610c3761127c565b8060058190555050565b610c53610c4c611303565b838361157c565b5050565b6007602052805f5260405f205f915054906101000a900460ff1681565b5f60015f8473ffffffffffffffffffffffffffffffffffffffff1673ffffffffffffffffffffffffffffffffffffffff1681526020019081526020015f205f8373ffffffffffffffffffffffffffffffffffffffff1673ffffffffffffffffffffffffffffffffffffffff1681526020019081526020015f205f9054906101000a900460ff16905092915050565b610d0a61127c565b5f73ffffffffffffffffffffffffffffffffffffffff168173ffffffffffffffffffffffffffffffffffffffff1603610d78576040517f08c379a0000000000000000000000000000000000000000000000000000000008152600401610d6f90612d4b565b60405180910390fd5b8060065f6101000a81548173ffffffffffffffffffffffffffffffffffffffff021916908373ffffffffffffffffffffffffffffffffffffffff16021790555050565b5f610dc4611303565b90508073ffffffffffffffffffffffffffffffffffffffff168673ffffffffffffffffffffffffffffffffffffffff1614158015610e095750610e078682610c74565b155b15610e4d5780866040517fe237d922000000000000000000000000000000000000000000000000000000008152600401610e449291906129c1565b60405180910390fd5b610e5a86868686866116e5565b505050505050565b610e6a61127c565b5f73ffffffffffffffffffffffffffffffffffffffff168173ffffffffffffffffffffffffffffffffffffffff1603610eda575f6040517f1e4fbdf7000000000000000000000000000000000000000000000000000000008152600401610ed19190612773565b60405180910390fd5b610ee381611424565b50565b600660149054906101000a900460ff16610f35576040517f08c379a0000000000000000000000000000000000000000000000000000000008152600401610f2c90612acd565b60405180910390fd5b5f82118015610f4657506127108211155b610f85576040517f08c379a0000000000000000000000000000000000000000000000000000000008152600401610f7c90612b35565b60405180910390fd5b60075f8381526020019081526020015f205f9054906101000a900460ff1615610fe3576040517f08c379a0000000000000000000000000000000000000000000000000000000008152600401610fda90612b9d565b60405180910390fd5b600554341015611028576040517f08c379a000000000000000000000000000000000000000000000000000000000815260040161101f90612c05565b60405180910390fd5b5f73ffffffffffffffffffffffffffffffffffffffff168173ffffffffffffffffffffffffffffffffffffffff1603611096576040517f08c379a000000000000000000000000000000000000000000000000000000000815260040161108d90612db3565b60405180910390fd5b600160075f8481526020019081526020015f205f6101000a81548160ff02191690831515021790555060045f8154809291906110d190612a3c565b91905055506110f18183600160405180602001604052805f8152506114e7565b5f60065f9054906101000a900473ffffffffffffffffffffffffffffffffffffffff1673ffffffffffffffffffffffffffffffffffffffff163460405161113790612c50565b5f6040518083038185875af1925050503d805f8114611171576040519150601f19603f3d011682016040523d82523d5f602084013e611176565b606091505b50509050806111ba576040517f08c379a00000000000000000000000000000000000000000000000000000000081526004016111b190612cae565b60405180910390fd5b8173ffffffffffffffffffffffffffffffffffffffff16837fee695f2628e605cc152e49423ce3d61f2373c7b07702f32e8088fec6b8610a598534600160405161120693929190612ccc565b60405180910390a3505050565b5f7f01ffc9a7000000000000000000000000000000000000000000000000000000007bffffffffffffffffffffffffffffffffffffffffffffffffffffffff1916827bffffffffffffffffffffffffffffffffffffffffffffffffffffffff1916149050919050565b611284611303565b73ffffffffffffffffffffffffffffffffffffffff166112a2610c07565b73ffffffffffffffffffffffffffffffffffffffff1614611301576112c5611303565b6040517f118cdaa70000000000000000000000000000000000000000000000000000000081526004016112f89190612773565b60405180910390fd5b565b5f33905090565b5f73ffffffffffffffffffffffffffffffffffffffff168473ffffffffffffffffffffffffffffffffffffffff160361137a575f6040517f57f447ce0000000000000000000000000000000000000000000000000000000081526004016113719190612773565b60405180910390fd5b5f73ffffffffffffffffffffffffffffffffffffffff168573ffffffffffffffffffffffffffffffffffffffff16036113ea575f6040517f01a835140000000000000000000000000000000000000000000000000000000081526004016113e19190612773565b60405180910390fd5b6113f785858585856117eb565b5050505050565b5f60208202602084010151905092915050565b5f60208202602084010151905092915050565b5f60035f9054906101000a900473ffffffffffffffffffffffffffffffffffffffff1690508160035f6101000a81548173ffffffffffffffffffffffffffffffffffffffff021916908373ffffffffffffffffffffffffffffffffffffffff1602179055508173ffffffffffffffffffffffffffffffffffffffff168173ffffffffffffffffffffffffffffffffffffffff167f8be0079c531659141344cd1fd0a4f28419497f9722a3daafe3b4186f6b6457e060405160405180910390a35050565b5f73ffffffffffffffffffffffffffffffffffffffff168473ffffffffffffffffffffffffffffffffffffffff1603611557575f6040517f57f447ce00000000000000000000000000000000000000000000000000000000815260040161154e9190612773565b60405180910390fd5b5f806115638585611897565b915091506115745f878484876117eb565b505050505050565b5f73ffffffffffffffffffffffffffffffffffffffff168273ffffffffffffffffffffffffffffffffffffffff16036115ec575f6040517fced3e1000000000000000000000000000000000000000000000000000000000081526004016115e39190612773565b60405180910390fd5b8060015f8573ffffffffffffffffffffffffffffffffffffffff1673ffffffffffffffffffffffffffffffffffffffff1681526020019081526020015f205f8473ffffffffffffffffffffffffffffffffffffffff1673ffffffffffffffffffffffffffffffffffffffff1681526020019081526020015f205f6101000a81548160ff0219169083151502179055508173ffffffffffffffffffffffffffffffffffffffff168373ffffffffffffffffffffffffffffffffffffffff167f17307eab39ab6107e8899845ad3d59bd9653f200f220920489ca2b5937696c31836040516116d89190612159565b60405180910390a3505050565b5f73ffffffffffffffffffffffffffffffffffffffff168473ffffffffffffffffffffffffffffffffffffffff1603611755575f6040517f57f447ce00000000000000000000000000000000000000000000000000000000815260040161174c9190612773565b60405180910390fd5b5f73ffffffffffffffffffffffffffffffffffffffff168573ffffffffffffffffffffffffffffffffffffffff16036117c5575f6040517f01a835140000000000000000000000000000000000000000000000000000000081526004016117bc9190612773565b60405180910390fd5b5f806117d18585611897565b915091506117e287878484876117eb565b50505050505050565b6117f7858585856118c7565b5f73ffffffffffffffffffffffffffffffffffffffff168473ffffffffffffffffffffffffffffffffffffffff1614611890575f611833611303565b9050600184510361187f575f6118525f8661141190919063ffffffff16565b90505f6118685f8661141190919063ffffffff16565b9050611878838989858589611c5d565b505061188e565b61188d818787878787611e0c565b5b505b5050505050565b60608060405191506001825283602083015260408201905060018152826020820152604081016040529250929050565b805182511461191157815181516040517f5b0599910000000000000000000000000000000000000000000000000000000081526004016119089291906129e8565b60405180910390fd5b5f61191a611303565b90505f5b8351811015611b1c575f61193b828661141190919063ffffffff16565b90505f611951838661141190919063ffffffff16565b90505f73ffffffffffffffffffffffffffffffffffffffff168873ffffffffffffffffffffffffffffffffffffffff1614611a74575f805f8481526020019081526020015f205f8a73ffffffffffffffffffffffffffffffffffffffff1673ffffffffffffffffffffffffffffffffffffffff1681526020019081526020015f2054905081811015611a2057888183856040517f03dee4c5000000000000000000000000000000000000000000000000000000008152600401611a179493929190612dd1565b60405180910390fd5b8181035f808581526020019081526020015f205f8b73ffffffffffffffffffffffffffffffffffffffff1673ffffffffffffffffffffffffffffffffffffffff1681526020019081526020015f2081905550505b5f73ffffffffffffffffffffffffffffffffffffffff168773ffffffffffffffffffffffffffffffffffffffff1614611b0957805f808481526020019081526020015f205f8973ffffffffffffffffffffffffffffffffffffffff1673ffffffffffffffffffffffffffffffffffffffff1681526020019081526020015f205f828254611b019190612e14565b925050819055505b505080611b1590612a3c565b905061191e565b506001835103611bd7575f611b3a5f8561141190919063ffffffff16565b90505f611b505f8561141190919063ffffffff16565b90508573ffffffffffffffffffffffffffffffffffffffff168773ffffffffffffffffffffffffffffffffffffffff168473ffffffffffffffffffffffffffffffffffffffff167fc3d58168c5ae7397731d063d5bbf3d657854427343f4c083240f7aacaa2d0f628585604051611bc89291906129e8565b60405180910390a45050611c56565b8373ffffffffffffffffffffffffffffffffffffffff168573ffffffffffffffffffffffffffffffffffffffff168273ffffffffffffffffffffffffffffffffffffffff167f4a39dc06d4c0dbc64b70af90fd698a233a518aa5d07e595d983b8c0526c8f7fb8686604051611c4d929190612e47565b60405180910390a45b5050505050565b5f8473ffffffffffffffffffffffffffffffffffffffff163b1115611e04578373ffffffffffffffffffffffffffffffffffffffff1663f23a6e6187878686866040518663ffffffff1660e01b8152600401611cbd959493929190612ece565b6020604051808303815f875af1925050508015611cf857506040513d601f19601f82011682018060405250810190611cf59190612f3a565b60015b611d79573d805f8114611d26576040519150601f19603f3d011682016040523d82523d5f602084013e611d2b565b606091505b505f815103611d7157846040517f57f447ce000000000000000000000000000000000000000000000000000000008152600401611d689190612773565b60405180910390fd5b805160208201fd5b63f23a6e6160e01b7bffffffffffffffffffffffffffffffffffffffffffffffffffffffff1916817bffffffffffffffffffffffffffffffffffffffffffffffffffffffff191614611e0257846040517f57f447ce000000000000000000000000000000000000000000000000000000008152600401611df99190612773565b60405180910390fd5b505b505050505050565b5f8473ffffffffffffffffffffffffffffffffffffffff163b1115611fb3578373ffffffffffffffffffffffffffffffffffffffff1663bc197c8187878686866040518663ffffffff1660e01b8152600401611e6c959493929190612f65565b6020604051808303815f875af1925050508015611ea757506040513d601f19601f82011682018060405250810190611ea49190612f3a565b60015b611f28573d805f8114611ed5576040519150601f19603f3d011682016040523d82523d5f602084013e611eda565b606091505b505f815103611f2057846040517f57f447ce000000000000000000000000000000000000000000000000000000008152600401611f179190612773565b60405180910390fd5b805160208201fd5b63bc197c8160e01b7bffffffffffffffffffffffffffffffffffffffffffffffffffffffff1916817bffffffffffffffffffffffffffffffffffffffffffffffffffffffff191614611fb157846040517f57f447ce000000000000000000000000000000000000000000000000000000008152600401611fa89190612773565b60405180910390fd5b505b505050505050565b5f604051905090565b5f80fd5b5f80fd5b5f73ffffffffffffffffffffffffffffffffffffffff82169050919050565b5f611ff582611fcc565b9050919050565b61200581611feb565b811461200f575f80fd5b50565b5f8135905061202081611ffc565b92915050565b5f819050919050565b61203881612026565b8114612042575f80fd5b50565b5f813590506120538161202f565b92915050565b5f806040838503121561206f5761206e611fc4565b5b5f61207c85828601612012565b925050602061208d85828601612045565b9150509250929050565b6120a081612026565b82525050565b5f6020820190506120b95f830184612097565b92915050565b5f7fffffffff0000000000000000000000000000000000000000000000000000000082169050919050565b6120f3816120bf565b81146120fd575f80fd5b50565b5f8135905061210e816120ea565b92915050565b5f6020828403121561212957612128611fc4565b5b5f61213684828501612100565b91505092915050565b5f8115159050919050565b6121538161213f565b82525050565b5f60208201905061216c5f83018461214a565b92915050565b61217b8161213f565b8114612185575f80fd5b50565b5f8135905061219681612172565b92915050565b5f602082840312156121b1576121b0611fc4565b5b5f6121be84828501612188565b91505092915050565b5f602082840312156121dc576121db611fc4565b5b5f6121e984828501612045565b91505092915050565b5f81519050919050565b5f82825260208201905092915050565b5f5b8381101561222957808201518184015260208101905061220e565b5f8484015250505050565b5f601f19601f8301169050919050565b5f61224e826121f2565b61225881856121fc565b935061226881856020860161220c565b61227181612234565b840191505092915050565b5f6020820190508181035f8301526122948184612244565b905092915050565b5f80fd5b7f4e487b71000000000000000000000000000000000000000000000000000000005f52604160045260245ffd5b6122d682612234565b810181811067ffffffffffffffff821117156122f5576122f46122a0565b5b80604052505050565b5f612307611fbb565b905061231382826122cd565b919050565b5f67ffffffffffffffff821115612332576123316122a0565b5b602082029050602081019050919050565b5f80fd5b5f61235961235484612318565b6122fe565b9050808382526020820190506020840283018581111561237c5761237b612343565b5b835b818110156123a557806123918882612045565b84526020840193505060208101905061237e565b5050509392505050565b5f82601f8301126123c3576123c261229c565b5b81356123d3848260208601612347565b91505092915050565b5f80fd5b5f67ffffffffffffffff8211156123fa576123f96122a0565b5b61240382612234565b9050602081019050919050565b828183375f83830152505050565b5f61243061242b846123e0565b6122fe565b90508281526020810184848401111561244c5761244b6123dc565b5b612457848285612410565b509392505050565b5f82601f8301126124735761247261229c565b5b813561248384826020860161241e565b91505092915050565b5f805f805f60a086880312156124a5576124a4611fc4565b5b5f6124b288828901612012565b95505060206124c388828901612012565b945050604086013567ffffffffffffffff8111156124e4576124e3611fc8565b5b6124f0888289016123af565b935050606086013567ffffffffffffffff81111561251157612510611fc8565b5b61251d888289016123af565b925050608086013567ffffffffffffffff81111561253e5761253d611fc8565b5b61254a8882890161245f565b9150509295509295909350565b5f67ffffffffffffffff821115612571576125706122a0565b5b602082029050602081019050919050565b5f61259461258f84612557565b6122fe565b905080838252602082019050602084028301858111156125b7576125b6612343565b5b835b818110156125e057806125cc8882612012565b8452602084019350506020810190506125b9565b5050509392505050565b5f82601f8301126125fe576125fd61229c565b5b813561260e848260208601612582565b91505092915050565b5f806040838503121561262d5761262c611fc4565b5b5f83013567ffffffffffffffff81111561264a57612649611fc8565b5b612656858286016125ea565b925050602083013567ffffffffffffffff81111561267757612676611fc8565b5b612683858286016123af565b9150509250929050565b5f81519050919050565b5f82825260208201905092915050565b5f819050602082019050919050565b6126bf81612026565b82525050565b5f6126d083836126b6565b60208301905092915050565b5f602082019050919050565b5f6126f28261268d565b6126fc8185612697565b9350612707836126a7565b805f5b8381101561273757815161271e88826126c5565b9750612729836126dc565b92505060018101905061270a565b5085935050505092915050565b5f6020820190508181035f83015261275c81846126e8565b905092915050565b61276d81611feb565b82525050565b5f6020820190506127865f830184612764565b92915050565b5f80604083850312156127a2576127a1611fc4565b5b5f6127af85828601612012565b92505060206127c085828601612188565b9150509250929050565b5f80604083850312156127e0576127df611fc4565b5b5f6127ed85828601612012565b92505060206127fe85828601612012565b9150509250929050565b5f6020828403121561281d5761281c611fc4565b5b5f61282a84828501612012565b91505092915050565b5f805f805f60a0868803121561284c5761284b611fc4565b5b5f61285988828901612012565b955050602061286a88828901612012565b945050604061287b88828901612045565b935050606061288c88828901612045565b925050608086013567ffffffffffffffff8111156128ad576128ac611fc8565b5b6128b98882890161245f565b9150509295509295909350565b5f80604083850312156128dc576128db611fc4565b5b5f6128e985828601612045565b92505060206128fa85828601612012565b9150509250929050565b7f4e487b71000000000000000000000000000000000000000000000000000000005f52602260045260245ffd5b5f600282049050600182168061294857607f821691505b60208210810361295b5761295a612904565b5b50919050565b7f4e487b71000000000000000000000000000000000000000000000000000000005f52601160045260245ffd5b5f61299882612026565b91506129a383612026565b92508282039050818111156129bb576129ba612961565b5b92915050565b5f6040820190506129d45f830185612764565b6129e16020830184612764565b9392505050565b5f6040820190506129fb5f830185612097565b612a086020830184612097565b9392505050565b7f4e487b71000000000000000000000000000000000000000000000000000000005f52603260045260245ffd5b5f612a4682612026565b91507fffffffffffffffffffffffffffffffffffffffffffffffffffffffffffffffff8203612a7857612a77612961565b5b600182019050919050565b7f53616c6573206e6f7420616374697665000000000000000000000000000000005f82015250565b5f612ab76010836121fc565b9150612ac282612a83565b602082019050919050565b5f6020820190508181035f830152612ae481612aab565b9050919050565b7f496e76616c696420706c6f7400000000000000000000000000000000000000005f82015250565b5f612b1f600c836121fc565b9150612b2a82612aeb565b602082019050919050565b5f6020820190508181035f830152612b4c81612b13565b9050919050565b7f416c726561647920736f6c6400000000000000000000000000000000000000005f82015250565b5f612b87600c836121fc565b9150612b9282612b53565b602082019050919050565b5f6020820190508181035f830152612bb481612b7b565b9050919050565b7f496e73756666696369656e74207061796d656e740000000000000000000000005f82015250565b5f612bef6014836121fc565b9150612bfa82612bbb565b602082019050919050565b5f6020820190508181035f830152612c1c81612be3565b9050919050565b5f81905092915050565b50565b5f612c3b5f83612c23565b9150612c4682612c2d565b5f82019050919050565b5f612c5a82612c30565b9150819050919050565b7f5472656173757279207472616e73666572206661696c656400000000000000005f82015250565b5f612c986018836121fc565b9150612ca382612c64565b602082019050919050565b5f6020820190508181035f830152612cc581612c8c565b9050919050565b5f606082019050612cdf5f830186612097565b612cec6020830185612097565b612cf9604083018461214a565b949350505050565b7f496e76616c6964207472656173757279000000000000000000000000000000005f82015250565b5f612d356010836121fc565b9150612d4082612d01565b602082019050919050565b5f6020820190508181035f830152612d6281612d29565b9050919050565b7f496e76616c696420636f6c642077616c6c6574000000000000000000000000005f82015250565b5f612d9d6013836121fc565b9150612da882612d69565b602082019050919050565b5f6020820190508181035f830152612dca81612d91565b9050919050565b5f608082019050612de45f830187612764565b612df16020830186612097565b612dfe6040830185612097565b612e0b6060830184612097565b95945050505050565b5f612e1e82612026565b9150612e2983612026565b9250828201905080821115612e4157612e40612961565b5b92915050565b5f6040820190508181035f830152612e5f81856126e8565b90508181036020830152612e7381846126e8565b90509392505050565b5f81519050919050565b5f82825260208201905092915050565b5f612ea082612e7c565b612eaa8185612e86565b9350612eba81856020860161220c565b612ec381612234565b840191505092915050565b5f60a082019050612ee15f830188612764565b612eee6020830187612764565b612efb6040830186612097565b612f086060830185612097565b8181036080830152612f1a8184612e96565b90509695505050505050565b5f81519050612f34816120ea565b92915050565b5f60208284031215612f4f57612f4e611fc4565b5b5f612f5c84828501612f26565b91505092915050565b5f60a082019050612f785f830188612764565b612f856020830187612764565b8181036040830152612f9781866126e8565b90508181036060830152612fab81856126e8565b90508181036080830152612fbf8184612e96565b9050969550505050505056fea26469706673582212206ea9eb28322eaeedfb2cc49258e3b0936e6d91c1ff2940060b614fcb1877fbf864736f6c63430008140033","linkReferences":{}},"methodIdentifiers":{"TOTAL_PLOTS()":"696adcd6","balanceOf(address,uint256)":"00fdd58e","balanceOfBatch(address[],uint256[])":"4e1273f4","buyPlot(uint256)":"7b1949d2","buyPlotForCold(uint256,address)":"f782c0f8","isApprovedForAll(address,address)":"e985e9c5","owner()":"8da5cb5b","plotMinted(uint256)":"acad4223","plotsRemaining()":"17464dc3","plotsSold()":"65ffc205","priceInAVAX()":"7a85a11a","renounceOwnership()":"715018a6","safeBatchTransferFrom(address,address,uint256[],uint256[],bytes)":"2eb2c2d6","safeTransferFrom(address,address,uint256,uint256,bytes)":"f242432a","salesActive()":"4a6bfa2d","setApprovalForAll(address,bool)":"a22cb465","setPrice(uint256)":"91b7f5ed","setTreasury(address)":"f0f44260","supportsInterface(bytes4)":"01ffc9a7","toggleSales(bool)":"0a73f8e0","transferOwnership(address)":"f2fde38b","treasury()":"61d027b3","uri(uint256)":"0e89341c"},"id":39}